{
  "_format": "hh-sol-artifact-1",
  "contractName": "Voting",
  "sourceName": "contracts/Voting.sol",
  "abi": [
    {
      "anonymous": false,
      "inputs": [
        {
          "indexed": true,
          "internalType": "address",
          "name": "member",
          "type": "address"
        },
        {
          "indexed": false,
          "internalType": "uint256",
          "name": "joinedAt",
          "type": "uint256"
        }
      ],
      "name": "MemberJoined",
      "type": "event"
    },
    {
      "anonymous": false,
      "inputs": [
        {
          "indexed": true,
          "internalType": "address",
          "name": "owner",
          "type": "address"
        },
        {
          "indexed": true,
          "internalType": "uint256",
          "name": "voteId",
          "type": "uint256"
        },
        {
          "indexed": true,
          "internalType": "uint256",
          "name": "createdAt",
          "type": "uint256"
        },
        {
          "indexed": false,
          "internalType": "uint256",
          "name": "endTime",
          "type": "uint256"
        }
      ],
      "name": "VoteCreated",
      "type": "event"
    },
    {
      "anonymous": false,
      "inputs": [
        {
          "indexed": true,
          "internalType": "address",
          "name": "voter",
          "type": "address"
        },
        {
          "indexed": true,
          "internalType": "uint256",
          "name": "voteId",
          "type": "uint256"
        },
        {
          "indexed": true,
          "internalType": "uint256",
          "name": "option",
          "type": "uint256"
        },
        {
          "indexed": false,
          "internalType": "uint256",
          "name": "createdAt",
          "type": "uint256"
        }
      ],
      "name": "Voted",
      "type": "event"
    },
    {
      "inputs": [
        {
          "internalType": "string",
          "name": "uri",
          "type": "string"
        },
        {
          "internalType": "uint256",
          "name": "endTime",
          "type": "uint256"
        },
        {
          "internalType": "uint256",
          "name": "options",
          "type": "uint256"
        }
      ],
      "name": "createVote",
      "outputs": [],
      "stateMutability": "nonpayable",
      "type": "function"
    },
    {
      "inputs": [
        {
          "internalType": "address",
          "name": "member",
          "type": "address"
        },
        {
          "internalType": "uint256",
          "name": "voteId",
          "type": "uint256"
        }
      ],
      "name": "didVote",
      "outputs": [
        {
          "internalType": "bool",
          "name": "",
          "type": "bool"
        }
      ],
      "stateMutability": "view",
      "type": "function"
    },
    {
      "inputs": [
        {
          "internalType": "uint256",
          "name": "voteId",
          "type": "uint256"
        }
      ],
      "name": "getVote",
      "outputs": [
        {
          "internalType": "string",
          "name": "",
          "type": "string"
        },
        {
          "internalType": "address",
          "name": "",
          "type": "address"
        },
        {
          "internalType": "uint256[]",
          "name": "",
          "type": "uint256[]"
        },
        {
          "internalType": "uint256",
          "name": "",
          "type": "uint256"
        }
      ],
      "stateMutability": "view",
      "type": "function"
    },
    {
      "inputs": [],
      "name": "join",
      "outputs": [],
      "stateMutability": "nonpayable",
      "type": "function"
    },
    {
      "inputs": [
        {
          "internalType": "address",
          "name": "",
          "type": "address"
        }
      ],
      "name": "members",
      "outputs": [
        {
          "internalType": "bool",
          "name": "",
          "type": "bool"
        }
      ],
      "stateMutability": "view",
      "type": "function"
    },
    {
      "inputs": [
        {
          "internalType": "uint256",
          "name": "voteId",
          "type": "uint256"
        },
        {
          "internalType": "uint256",
          "name": "option",
          "type": "uint256"
        }
      ],
      "name": "vote",
      "outputs": [],
      "stateMutability": "nonpayable",
      "type": "function"
    }
  ],
  "bytecode": "0x6080604052348015600f57600080fd5b506118628061001f6000396000f3fe608060405234801561001057600080fd5b50600436106100625760003560e01c8063029fc3e81461006757806308ae4b0c146100835780635a55c1f0146100b3578063b384abef146100e6578063b688a36314610102578063bda088d41461010c575b600080fd5b610081600480360381019061007c9190610c64565b61013c565b005b61009d60048036038101906100989190610d31565b6103e2565b6040516100aa9190610d79565b60405180910390f35b6100cd60048036038101906100c89190610d94565b610402565b6040516100dd9493929190610f1c565b60405180910390f35b61010060048036038101906100fb9190610f6f565b610571565b005b61010a6108ca565b005b61012660048036038101906101219190610faf565b6109ff565b6040516101339190610d79565b60405180910390f35b600260003373ffffffffffffffffffffffffffffffffffffffff1673ffffffffffffffffffffffffffffffffffffffff16815260200190815260200160002060009054906101000a900460ff166101c8576040517f08c379a00000000000000000000000000000000000000000000000000000000081526004016101bf90611061565b60405180910390fd5b42821161020a576040517f08c379a0000000000000000000000000000000000000000000000000000000008152600401610201906110f3565b60405180910390fd5b6000811161024d576040517f08c379a000000000000000000000000000000000000000000000000000000000815260040161024490611185565b60405180910390fd5b6000805490508360016000838152602001908152602001600020600001908161027691906113b1565b50336001600083815260200190815260200160002060010160006101000a81548173ffffffffffffffffffffffffffffffffffffffff021916908373ffffffffffffffffffffffffffffffffffffffff1602179055508260016000838152602001908152602001600020600201819055508160016000838152602001908152602001600020600501819055508167ffffffffffffffff81111561031c5761031b610b03565b5b60405190808252806020026020018201604052801561034a5781602001602082028036833780820191505090505b50600160008381526020019081526020016000206003019080519060200190610374929190610a6a565b5042813373ffffffffffffffffffffffffffffffffffffffff167f665ef0592b007345b8682bb42a5cae81579ec1765a7939bb3ae4c4667e467f9c866040516103bd9190611483565b60405180910390a46000808154809291906103d7906114cd565b919050555050505050565b60026020528060005260406000206000915054906101000a900460ff1681565b6060600060606000600160008681526020019081526020016000206000016001600087815260200190815260200160002060010160009054906101000a900473ffffffffffffffffffffffffffffffffffffffff16600160008881526020019081526020016000206003016001600089815260200190815260200160002060020154838054610490906111d4565b80601f01602080910402602001604051908101604052809291908181526020018280546104bc906111d4565b80156105095780601f106104de57610100808354040283529160200191610509565b820191906000526020600020905b8154815290600101906020018083116104ec57829003601f168201915b505050505093508180548060200260200160405190810160405280929190818152602001828054801561055b57602002820191906000526020600020905b815481526020019060010190808311610547575b5050505050915093509350935093509193509193565b600260003373ffffffffffffffffffffffffffffffffffffffff1673ffffffffffffffffffffffffffffffffffffffff16815260200190815260200160002060009054906101000a900460ff166105fd576040517f08c379a00000000000000000000000000000000000000000000000000000000081526004016105f490611061565b60405180910390fd5b81816000548210610643576040517f08c379a000000000000000000000000000000000000000000000000000000000815260040161063a90611587565b60405180910390fd5b6001600083815260200190815260200160002060040160003373ffffffffffffffffffffffffffffffffffffffff1673ffffffffffffffffffffffffffffffffffffffff16815260200190815260200160002060009054906101000a900460ff16156106e4576040517f08c379a00000000000000000000000000000000000000000000000000000000081526004016106db906115f3565b60405180910390fd5b6001600083815260200190815260200160002060050154811061073c576040517f08c379a000000000000000000000000000000000000000000000000000000000815260040161073390611685565b60405180910390fd5b6001600083815260200190815260200160002060020154421115610795576040517f08c379a000000000000000000000000000000000000000000000000000000000815260040161078c90611717565b60405180910390fd5b600180600086815260200190815260200160002060030184815481106107be576107bd611737565b5b90600052602060002001546107d39190611766565b6001600086815260200190815260200160002060030184815481106107fb576107fa611737565b5b9060005260206000200181905550600180600086815260200190815260200160002060040160003373ffffffffffffffffffffffffffffffffffffffff1673ffffffffffffffffffffffffffffffffffffffff16815260200190815260200160002060006101000a81548160ff02191690831515021790555082843373ffffffffffffffffffffffffffffffffffffffff167fc32b42768a47a585121e9b8d7a2ab9d3f34c326a192dee11ee1732e3d18313f3426040516108bc9190611483565b60405180910390a450505050565b600260003373ffffffffffffffffffffffffffffffffffffffff1673ffffffffffffffffffffffffffffffffffffffff16815260200190815260200160002060009054906101000a900460ff1615610957576040517f08c379a000000000000000000000000000000000000000000000000000000000815260040161094e9061180c565b60405180910390fd5b6001600260003373ffffffffffffffffffffffffffffffffffffffff1673ffffffffffffffffffffffffffffffffffffffff16815260200190815260200160002060006101000a81548160ff0219169083151502179055503373ffffffffffffffffffffffffffffffffffffffff167f7f3b9effe05cfb4f31f854004de03199fd03fe56bf38a48b2aa9a9f4402d6e23426040516109f59190611483565b60405180910390a2565b60006001600083815260200190815260200160002060040160008473ffffffffffffffffffffffffffffffffffffffff1673ffffffffffffffffffffffffffffffffffffffff16815260200190815260200160002060009054906101000a900460ff16905092915050565b828054828255906000526020600020908101928215610aa6579160200282015b82811115610aa5578251825591602001919060010190610a8a565b5b509050610ab39190610ab7565b5090565b5b80821115610ad0576000816000905550600101610ab8565b5090565b6000604051905090565b600080fd5b600080fd5b600080fd5b600080fd5b6000601f19601f8301169050919050565b7f4e487b7100000000000000000000000000000000000000000000000000000000600052604160045260246000fd5b610b3b82610af2565b810181811067ffffffffffffffff82111715610b5a57610b59610b03565b5b80604052505050565b6000610b6d610ad4565b9050610b798282610b32565b919050565b600067ffffffffffffffff821115610b9957610b98610b03565b5b610ba282610af2565b9050602081019050919050565b82818337600083830152505050565b6000610bd1610bcc84610b7e565b610b63565b905082815260208101848484011115610bed57610bec610aed565b5b610bf8848285610baf565b509392505050565b600082601f830112610c1557610c14610ae8565b5b8135610c25848260208601610bbe565b91505092915050565b6000819050919050565b610c4181610c2e565b8114610c4c57600080fd5b50565b600081359050610c5e81610c38565b92915050565b600080600060608486031215610c7d57610c7c610ade565b5b600084013567ffffffffffffffff811115610c9b57610c9a610ae3565b5b610ca786828701610c00565b9350506020610cb886828701610c4f565b9250506040610cc986828701610c4f565b9150509250925092565b600073ffffffffffffffffffffffffffffffffffffffff82169050919050565b6000610cfe82610cd3565b9050919050565b610d0e81610cf3565b8114610d1957600080fd5b50565b600081359050610d2b81610d05565b92915050565b600060208284031215610d4757610d46610ade565b5b6000610d5584828501610d1c565b91505092915050565b60008115159050919050565b610d7381610d5e565b82525050565b6000602082019050610d8e6000830184610d6a565b92915050565b600060208284031215610daa57610da9610ade565b5b6000610db884828501610c4f565b91505092915050565b600081519050919050565b600082825260208201905092915050565b60005b83811015610dfb578082015181840152602081019050610de0565b60008484015250505050565b6000610e1282610dc1565b610e1c8185610dcc565b9350610e2c818560208601610ddd565b610e3581610af2565b840191505092915050565b610e4981610cf3565b82525050565b600081519050919050565b600082825260208201905092915050565b6000819050602082019050919050565b610e8481610c2e565b82525050565b6000610e968383610e7b565b60208301905092915050565b6000602082019050919050565b6000610eba82610e4f565b610ec48185610e5a565b9350610ecf83610e6b565b8060005b83811015610f00578151610ee78882610e8a565b9750610ef283610ea2565b925050600181019050610ed3565b5085935050505092915050565b610f1681610c2e565b82525050565b60006080820190508181036000830152610f368187610e07565b9050610f456020830186610e40565b8181036040830152610f578185610eaf565b9050610f666060830184610f0d565b95945050505050565b60008060408385031215610f8657610f85610ade565b5b6000610f9485828601610c4f565b9250506020610fa585828601610c4f565b9150509250929050565b60008060408385031215610fc657610fc5610ade565b5b6000610fd485828601610d1c565b9250506020610fe585828601610c4f565b9150509250929050565b7f57656c636f6d652120506c656173652072656769737465722061732061206d6560008201527f6d62657220666972737400000000000000000000000000000000000000000000602082015250565b600061104b602a83610dcc565b915061105682610fef565b604082019050919050565b6000602082019050818103600083015261107a8161103e565b9050919050565b7f54686520656e642074696d65206d75737420626520696e20746865206675747560008201527f7265000000000000000000000000000000000000000000000000000000000000602082015250565b60006110dd602283610dcc565b91506110e882611081565b604082019050919050565b6000602082019050818103600083015261110c816110d0565b9050919050565b7f5468657265206d757374206265206174206c65617374206f6e65206f7074696f60008201527f6e00000000000000000000000000000000000000000000000000000000000000602082015250565b600061116f602183610dcc565b915061117a82611113565b604082019050919050565b6000602082019050818103600083015261119e81611162565b9050919050565b7f4e487b7100000000000000000000000000000000000000000000000000000000600052602260045260246000fd5b600060028204905060018216806111ec57607f821691505b6020821081036111ff576111fe6111a5565b5b50919050565b60008190508160005260206000209050919050565b60006020601f8301049050919050565b600082821b905092915050565b6000600883026112677fffffffffffffffffffffffffffffffffffffffffffffffffffffffffffffffff8261122a565b611271868361122a565b95508019841693508086168417925050509392505050565b6000819050919050565b60006112ae6112a96112a484610c2e565b611289565b610c2e565b9050919050565b6000819050919050565b6112c883611293565b6112dc6112d4826112b5565b848454611237565b825550505050565b600090565b6112f16112e4565b6112fc8184846112bf565b505050565b5b81811015611320576113156000826112e9565b600181019050611302565b5050565b601f8211156113655761133681611205565b61133f8461121a565b8101602085101561134e578190505b61136261135a8561121a565b830182611301565b50505b505050565b600082821c905092915050565b60006113886000198460080261136a565b1980831691505092915050565b60006113a18383611377565b9150826002028217905092915050565b6113ba82610dc1565b67ffffffffffffffff8111156113d3576113d2610b03565b5b6113dd82546111d4565b6113e8828285611324565b600060209050601f83116001811461141b5760008415611409578287015190505b6114138582611395565b86555061147b565b601f19841661142986611205565b60005b828110156114515784890151825560018201915060208501945060208101905061142c565b8683101561146e578489015161146a601f891682611377565b8355505b6001600288020188555050505b505050505050565b60006020820190506114986000830184610f0d565b92915050565b7f4e487b7100000000000000000000000000000000000000000000000000000000600052601160045260246000fd5b60006114d882610c2e565b91507fffffffffffffffffffffffffffffffffffffffffffffffffffffffffffffffff820361150a5761150961149e565b5b600182019050919050565b7f536f7272792c207468697320656c656374696f6e20646f6573206e6f7420657860008201527f6973740000000000000000000000000000000000000000000000000000000000602082015250565b6000611571602383610dcc565b915061157c82611515565b604082019050919050565b600060208201905081810360008301526115a081611564565b9050919050565b7f48692074686572652c20796f75206861766520616c726561647920766f746564600082015250565b60006115dd602083610dcc565b91506115e8826115a7565b602082019050919050565b6000602082019050818103600083015261160c816115d0565b9050919050565b7f4f6f7073212054686174206f7074696f6e20697320696e76616c69642e20506c60008201527f656173652063686f6f736520612076616c6964206f7074696f6e2e0000000000602082015250565b600061166f603b83610dcc565b915061167a82611613565b604082019050919050565b6000602082019050818103600083015261169e81611662565b9050919050565b7f41777721205468697320656c656374696f6e2068617320616c7265616479206560008201527f6e64656400000000000000000000000000000000000000000000000000000000602082015250565b6000611701602483610dcc565b915061170c826116a5565b604082019050919050565b60006020820190508181036000830152611730816116f4565b9050919050565b7f4e487b7100000000000000000000000000000000000000000000000000000000600052603260045260246000fd5b600061177182610c2e565b915061177c83610c2e565b92508282019050808211156117945761179361149e565b5b92915050565b7f57656c636f6d65206261636b2120596f752061726520616c726561647920612060008201527f6d656d6265722e00000000000000000000000000000000000000000000000000602082015250565b60006117f6602783610dcc565b91506118018261179a565b604082019050919050565b60006020820190508181036000830152611825816117e9565b905091905056fea264697066735822122086e2a76116d9c3a6b7a1db3b52d4fc9e0a35ebd310a460a761b5ae303a67147864736f6c634300081c0033",
  "linkReferences": {},
  "deployedLinkReferences": {}
}